{
  "transactions": [
    {
      "hash": null,
      "transactionType": "CALL",
      "contractName": "HelperConfig",
      "contractAddress": "0x5aadfb43ef8daf45dd80f4676345b7676f1d70e3",
      "function": "getConfig()",
      "arguments": [],
      "transaction": {
        "from": "0xe1c059111cbd5d19d02f6f9f1e4ea97241a335b6",
        "to": "0x5aadfb43ef8daf45dd80f4676345b7676f1d70e3",
        "gas": "0x71a6",
        "value": "0x0",
        "input": "0xc3f909d4",
        "nonce": "0x2",
        "chainId": "0xaa36a7"
      },
      "additionalContracts": [],
      "isFixedGasLimit": false
    },
    {
      "hash": null,
      "transactionType": "CALL",
      "contractName": "HelperConfig",
      "contractAddress": "0x5aadfb43ef8daf45dd80f4676345b7676f1d70e3",
      "function": "getConfig()",
      "arguments": [],
      "transaction": {
        "from": "0xe1c059111cbd5d19d02f6f9f1e4ea97241a335b6",
        "to": "0x5aadfb43ef8daf45dd80f4676345b7676f1d70e3",
        "gas": "0x71a6",
        "value": "0x0",
        "input": "0xc3f909d4",
        "nonce": "0x3",
        "chainId": "0xaa36a7"
      },
      "additionalContracts": [],
      "isFixedGasLimit": false
    },
    {
      "hash": null,
      "transactionType": "CALL",
      "contractName": null,
      "contractAddress": "0xe1c059111cbd5d19d02f6f9f1e4ea97241a335b6",
      "function": "handleOps((address,uint256,bytes,bytes,bytes32,uint256,bytes32,bytes,bytes)[],address)",
      "arguments": [
        "[(0x6d980aaE2072fc158E8A235f8B93754320d35117, 0, 0x, 0xb61d27f6000000000000000000000000f08a50178dfcde18524640ea6618a1f965821715000000000000000000000000000000000000000000000000000000000000000000000000000000000000000000000000000000000000000000000000000000600000000000000000000000000000000000000000000000000000000000000044095ea7b300000000000000000000000080e71db45e3f250e060bf991238fc633b52af39a0000000000000000000000000000000000000000000000000de0b6b3a764000000000000000000000000000000000000000000000000000000000000, 0x0000000000000000000000000100000000000000000000000000000001000000, 16777216, 0x0000000000000000000000000000010000000000000000000000000000000100, 0x, 0x87b2964dda4c31eccd8a6387788321525f4fe5e24b57189db2d7958d3b7a79336c10acaefedfc47dd0cfc1c395f03fe6f0114466c83bdd28d258a6a42cda81f21b)]",
        "0x80e71dB45e3F250E060bF991238fc633b52AF39a"
      ],
      "transaction": {
        "from": "0xe1c059111cbd5d19d02f6f9f1e4ea97241a335b6",
        "to": "0xe1c059111cbd5d19d02f6f9f1e4ea97241a335b6",
        "gas": "0x3124c",
        "value": "0x0",
        "input": "0x765e827f000000000000000000000000000000000000000000000000000000000000004000000000000000000000000080e71db45e3f250e060bf991238fc633b52af39a000000000000000000000000000000000000000000000000000000000000000100000000000000000000000000000000000000000000000000000000000000200000000000000000000000006d980aae2072fc158e8a235f8b93754320d3511700000000000000000000000000000000000000000000000000000000000000000000000000000000000000000000000000000000000000000000000000000120000000000000000000000000000000000000000000000000000000000000014000000000000000000000000001000000000000000000000000000000010000000000000000000000000000000000000000000000000000000000000001000000000000000000000000000000000001000000000000000000000000000000010000000000000000000000000000000000000000000000000000000000000002600000000000000000000000000000000000000000000000000000000000000280000000000000000000000000000000000000000000000000000000000000000000000000000000000000000000000000000000000000000000000000000000e4b61d27f6000000000000000000000000f08a50178dfcde18524640ea6618a1f965821715000000000000000000000000000000000000000000000000000000000000000000000000000000000000000000000000000000000000000000000000000000600000000000000000000000000000000000000000000000000000000000000044095ea7b300000000000000000000000080e71db45e3f250e060bf991238fc633b52af39a0000000000000000000000000000000000000000000000000de0b6b3a764000000000000000000000000000000000000000000000000000000000000000000000000000000000000000000000000000000000000000000000000000000000000000000000000000000000000000000000000000000000000000000000000000000000000000000000000000000000000000000000000004187b2964dda4c31eccd8a6387788321525f4fe5e24b57189db2d7958d3b7a79336c10acaefedfc47dd0cfc1c395f03fe6f0114466c83bdd28d258a6a42cda81f21b00000000000000000000000000000000000000000000000000000000000000",
        "nonce": "0x4",
        "chainId": "0xaa36a7"
      },
      "additionalContracts": [],
      "isFixedGasLimit": false
    }
  ],
  "receipts": [],
  "libraries": [],
  "pending": [],
  "returns": {},
  "timestamp": 1745548557,
  "chain": 11155111,
  "commit": "2bc2f7f"
}