{
  "transactions": [
    {
      "hash": "0x24d13b9cb2c8923eca5f464f830c722b3ddaab47f6d3900fd9e74aeb7d1f7d25",
      "transactionType": "CALL",
      "contractName": "HelperConfig",
      "contractAddress": "0x5aadfb43ef8daf45dd80f4676345b7676f1d70e3",
      "function": "getConfig()",
      "arguments": [],
      "transaction": {
        "from": "0x80e71db45e3f250e060bf991238fc633b52af39a",
        "to": "0x5aadfb43ef8daf45dd80f4676345b7676f1d70e3",
        "gas": "0x71a6",
        "value": "0x0",
        "input": "0xc3f909d4",
        "nonce": "0xd",
        "chainId": "0xaa36a7"
      },
      "additionalContracts": [],
      "isFixedGasLimit": false
    },
    {
      "hash": "0x473e3cc65a465eb094b570eee573b2981351041636985467c455aab66d7ff67f",
      "transactionType": "CALL",
      "contractName": "HelperConfig",
      "contractAddress": "0x5aadfb43ef8daf45dd80f4676345b7676f1d70e3",
      "function": "getConfig()",
      "arguments": [],
      "transaction": {
        "from": "0x80e71db45e3f250e060bf991238fc633b52af39a",
        "to": "0x5aadfb43ef8daf45dd80f4676345b7676f1d70e3",
        "gas": "0x71a6",
        "value": "0x0",
        "input": "0xc3f909d4",
        "nonce": "0xe",
        "chainId": "0xaa36a7"
      },
      "additionalContracts": [],
      "isFixedGasLimit": false
    },
    {
      "hash": "0x443036462291eec327fa23cd952b6b1e1852cba4a44ce36c6d237a2639c47302",
      "transactionType": "CALL",
      "contractName": null,
      "contractAddress": "0xe1c059111cbd5d19d02f6f9f1e4ea97241a335b6",
      "function": "handleOps((address,uint256,bytes,bytes,bytes32,uint256,bytes32,bytes,bytes)[],address)",
      "arguments": [
        "[(0x6d980aaE2072fc158E8A235f8B93754320d35117, 0, 0x, 0xb61d27f6000000000000000000000000f08a50178dfcde18524640ea6618a1f965821715000000000000000000000000000000000000000000000000000000000000000000000000000000000000000000000000000000000000000000000000000000600000000000000000000000000000000000000000000000000000000000000044095ea7b300000000000000000000000080e71db45e3f250e060bf991238fc633b52af39a0000000000000000000000000000000000000000000000000de0b6b3a764000000000000000000000000000000000000000000000000000000000000, 0x0000000000000000000000000100000000000000000000000000000001000000, 16777216, 0x0000000000000000000000000000010000000000000000000000000000000100, 0x, 0x87b2964dda4c31eccd8a6387788321525f4fe5e24b57189db2d7958d3b7a79336c10acaefedfc47dd0cfc1c395f03fe6f0114466c83bdd28d258a6a42cda81f21b)]",
        "0x80e71dB45e3F250E060bF991238fc633b52AF39a"
      ],
      "transaction": {
        "from": "0x80e71db45e3f250e060bf991238fc633b52af39a",
        "to": "0xe1c059111cbd5d19d02f6f9f1e4ea97241a335b6",
        "gas": "0x304cf",
        "value": "0x0",
        "input": "0x765e827f000000000000000000000000000000000000000000000000000000000000004000000000000000000000000080e71db45e3f250e060bf991238fc633b52af39a000000000000000000000000000000000000000000000000000000000000000100000000000000000000000000000000000000000000000000000000000000200000000000000000000000006d980aae2072fc158e8a235f8b93754320d3511700000000000000000000000000000000000000000000000000000000000000000000000000000000000000000000000000000000000000000000000000000120000000000000000000000000000000000000000000000000000000000000014000000000000000000000000001000000000000000000000000000000010000000000000000000000000000000000000000000000000000000000000001000000000000000000000000000000000001000000000000000000000000000000010000000000000000000000000000000000000000000000000000000000000002600000000000000000000000000000000000000000000000000000000000000280000000000000000000000000000000000000000000000000000000000000000000000000000000000000000000000000000000000000000000000000000000e4b61d27f6000000000000000000000000f08a50178dfcde18524640ea6618a1f965821715000000000000000000000000000000000000000000000000000000000000000000000000000000000000000000000000000000000000000000000000000000600000000000000000000000000000000000000000000000000000000000000044095ea7b300000000000000000000000080e71db45e3f250e060bf991238fc633b52af39a0000000000000000000000000000000000000000000000000de0b6b3a764000000000000000000000000000000000000000000000000000000000000000000000000000000000000000000000000000000000000000000000000000000000000000000000000000000000000000000000000000000000000000000000000000000000000000000000000000000000000000000000000004187b2964dda4c31eccd8a6387788321525f4fe5e24b57189db2d7958d3b7a79336c10acaefedfc47dd0cfc1c395f03fe6f0114466c83bdd28d258a6a42cda81f21b00000000000000000000000000000000000000000000000000000000000000",
        "nonce": "0xf",
        "chainId": "0xaa36a7"
      },
      "additionalContracts": [],
      "isFixedGasLimit": false
    }
  ],
  "receipts": [
    {
      "status": "0x1",
      "cumulativeGasUsed": "0xb7e484",
      "logs": [],
      "logsBloom": "0x00000000000000000000000000000000000000000000000000000000000000000000000000000000000000000000000000000000000000000000000000000000000000000000000000000000000000000000000000000000000000000000000000000000000000000000000000000000000000000000000000000000000000000000000000000000000000000000000000000000000000000000000000000000000000000000000000000000000000000000000000000000000000000000000000000000000000000000000000000000000000000000000000000000000000000000000000000000000000000000000000000000000000000000000000000000",
      "type": "0x2",
      "transactionHash": "0x24d13b9cb2c8923eca5f464f830c722b3ddaab47f6d3900fd9e74aeb7d1f7d25",
      "transactionIndex": "0x5d",
      "blockHash": "0x36fbb1c6ceb29edd19a2c33ea368f7df861c870403a81e063e5bb8a09b0bb6a6",
      "blockNumber": "0x7cf7a5",
      "gasUsed": "0x52a8",
      "effectiveGasPrice": "0x38b63be",
      "from": "0x80e71db45e3f250e060bf991238fc633b52af39a",
      "to": "0x5aadfb43ef8daf45dd80f4676345b7676f1d70e3",
      "contractAddress": null
    },
    {
      "status": "0x1",
      "cumulativeGasUsed": "0xb8372c",
      "logs": [],
      "logsBloom": "0x00000000000000000000000000000000000000000000000000000000000000000000000000000000000000000000000000000000000000000000000000000000000000000000000000000000000000000000000000000000000000000000000000000000000000000000000000000000000000000000000000000000000000000000000000000000000000000000000000000000000000000000000000000000000000000000000000000000000000000000000000000000000000000000000000000000000000000000000000000000000000000000000000000000000000000000000000000000000000000000000000000000000000000000000000000000",
      "type": "0x2",
      "transactionHash": "0x473e3cc65a465eb094b570eee573b2981351041636985467c455aab66d7ff67f",
      "transactionIndex": "0x5e",
      "blockHash": "0x36fbb1c6ceb29edd19a2c33ea368f7df861c870403a81e063e5bb8a09b0bb6a6",
      "blockNumber": "0x7cf7a5",
      "gasUsed": "0x52a8",
      "effectiveGasPrice": "0x38b63be",
      "from": "0x80e71db45e3f250e060bf991238fc633b52af39a",
      "to": "0x5aadfb43ef8daf45dd80f4676345b7676f1d70e3",
      "contractAddress": null
    }
  ],
  "libraries": [],
  "pending": [],
  "returns": {},
  "timestamp": 1745547744,
  "chain": 11155111,
  "commit": "2bc2f7f"
}